:400000000080002011000000B9030000B903000008B5044B1A6803F53F5302331A6000F0EBF900BFFA46004010B5054C237833B9044B13B10448AFF300800123237010BD1B
:400040008881FF1F00000000BC170000084B10B51BB108480849AFF300800848036803B910BD074B002BFBD0BDE81040184700BF00000000BC1700008C81FF1F0881FF1F9B
:400080000000000010B562B600F046FF044600F019F800F045F900F069F90A2000F016FB204600F03DFFFEE78180082383710023036004E0C218FF21D1710133DBB2072B08
:4000C000F8D9704708B500F0A1FC00F039FE00F0A9FE0A484FF4C471FFF7E6FF08484FF42271FFF7E1FF07484FF46271FFF7DCFF05484FF49161FFF7D7FF08BDC081FF1F27
:40010000B081FF1FD081FF1FE081FF1FF0B484B08D888C79002307E0CA18D67904AA1A4402F8096C0133DBB2A342F5D3002208E09B1A04AE334413F80A6C8B18DE710132DE
:40014000D2B263089342F3D8002208E09E1A04AF3E4416F8067C8E18F7720132D2B29A42F4D3002319E0C218D679CA18D279964211D085808B7983710B680360002305E0FA
:40018000CA18D479C218D4710133DBB28A799A42F6D8012004E00133DBB2A342E3D3002004B0F0BC704700BF00B583B0084B01A808495A7A9B7A00F0F7FE00200C2100F0EC
:4001C000F7FB01A800F088FB03B05DF804FB00BFC081FF1FC017000000B583B00D4A117A537A43EA01230C4AA2FB0312D20802EB820149005B1A684608499BB200F0D4FEEF
:400200000120032100F0D4FB684600F065FB03B05DF804FBB081FF1FCDCCCCCCCC17000010B582B0134AD37A117B0904547B927B41EA036343EA042313430F4AA2FB0312F6
:400240000E4CA4FB03135C090D4BA3FB0413DB0803EB83035B0068460A499209E31A00F0A3FE0020032100F0A3FB684600F034FB02B010BDD081FF1FD34D62101F85EB5122
:40028000CDCCCCCCD817000010B5054B9C7B01200D2100F08DFB204600F0A8FB10BD00BFE081FF1F10B501468388B3F5227F13D003D8B3F5C47F07D026E0B3F5627F13D0D5
:4002C000B3F5916F18D01FE01148FFF71FFF0446D8B1FFF769FF18E00E48FFF717FF044698B1FFF779FF10E00B48FFF70FFF044658B1FFF795FF08E00848FFF707FF0446D4
:4003000018B1FFF7C1FF00E00024204610BD00BFC081FF1FB081FF1FD081FF1FE081FF1F30B58BB000F036FB0E4B06AC0FCB07C424F8023B1B0C237001AC0B4D0FCD0FC4F4
:400340002B68237006A800F0C7FA0120002100F02FFB01A800F0C0FA40F6B83000F0B6F90BB030BDE4170000F417000030B58BB005AC0F4D0FCD0FC42B6823706C460D4DD0
:400380000FCD0FC42B682370012000F0B7FA0020014600F00DFB05A800F09EFA0120002100F006FB684600F097FA0BB030BD00BF081800001C18000008B500F0B5FD03682B
:4003C0000C2B00D1FEE7FEE708B5094B1A681044084BC31A802B02DC054B186005E000F0A3FD0C2303604FF0FF32104608BD00BF0C81FF1FF881FF1F08B5104E104D16E0C2
:4004000029686B68AC68002204E051F8040B43F8040B0432A242F8D1E868002203E0002143F8041B04328242F9D11035013E002EE6D100F07FFDFFF725FEFEE70100000051
:400440003C1A000008B5124A124B1A60124A136843F40073136000230AE0032B03D80F4A52F8231000E00E490E4A42F8231001332F2BF2D90C4B1A780C4B1A70094A0C4B8D
:400480001A6000F0A1F800220A4B1A6008BD00BF0004FA050CED00E014ED00E000000000B90300000080FF1FBC7600400481FF1F08ED00E00081FF1FFEE700BFF0B40022BA
:4004C000174611E050F82760F3B226F0FF0608E001EB420511F812406D78A5550132013BDBB2002BF4D101370D2FEBD9F0BC7047064B1B78DBB203F00701054A11701B09E3
:40050000013213704422034B1A707047CF0100496E5800407658004008B50A46002100F03AFD08BD38B502221E4B1A7008224FF040231A70032103F5007319701A4B1B785F
:40054000DBB21A490B701A4B1A8041F25122023B1A80002419250CE0164B1B7803F0010343EA440404F003044FF4F07000F0CCFC013D0DB1032CEFD115B90320FFF79CFF23
:400580000D4B4FF480721A8007221A7000220B490A704820023108701A700222033B1A7038BD00BF0043004008010049A146004022420040254200400440004006400040E3
:4005C00008B500F0DDFC08BD70B572B62D4A137843F00403137000240CE02B4963001A1952000A4423445B00C8589188FFF794FF0134E4B2082CF0D94FF090402349FFF72D
:400600005DFF234A137843F0020313701032137843F0020313701F4C237843F040032370A2F58632513A137843F0100313701A481A490822FFF7C4FF19481A490822FFF75A
:40064000BFFF194819490822FFF7BAFF184819490822FFF7B5FF184A137843F008031370164E01253570FFF75DFF81233370144B1D70FFF73DFF134821460E22FFF7A0FF6F
:4006800070BD00BFE8460040381800003800004803500140A0430040C2510040700000481251004078000048225100408000004842510040880000482243004000480040A0
:4006C00004000840B043004001BE704710B5044605E0084B186800F017FCA4F50044B4F5004FF6D8034B586800FB04F000F00CFC10BD00BF1081FF1F08B5034B1B7A03FBCA
:4007000000F000F001FC08BD1081FF1F70B504460E46074B1D681F2802D90020FFF7D4FF04F01F04103455F8240045F8246070BD08ED00E038B504460D46072902D900207F
:40074000FFF7C2FF1F2C02D90020FFF7BDFF04F01F0000F1604000F564406D01EDB2057038BD00BF10B50B4C237803F09F032370237803F0F00323702378184340F010002E
:4007800020700120FFF7B8FF237803F0EF03237010BD00BF2051004038B505460E4C237843F020032370237803F0BF0323700020FFF7A2FF237803F0F003237023781D43CC
:4007C00045F0100525700120FFF796FF237803F0EF03237038BD00BF2051004070B5354B1A7802F08002D2B21A7033490A7802F0F00242F00F020A7001310A7802F0F00206
:400800000A7001310A7802F0F0020A701A7802F0DF021A701A7842F040021A704FF4CA760020FFF769FF234D2B7843F010032B700120FFF761FF214B1C78E4B22B7803F015
:40084000EF032B700020FFF757FF04F00804E4B22B7843F010032B700120FFF74DFF2B7803F0EF032B7014B90A20FFF745FF013E0CB1002ED4D10F4A137803F0BF031370C3
:40088000137803F08003DBB213700232137803F0F00313700132137803F0F00343F00F0313700132137803F0F00343F00F03137070BD00BF20510040225100402151004025
:4008C00010B50446FFF78AFF2009FFF765FF04F00F00FFF761FF10BD38B505460078012404E0FFF7EDFF285D0134E4B20028F8D138BD00BF08B5FFF7E3FF08BD10B50446C8
:40090000FFF76CFF2009FFF72DFF04F00F00FFF729FF10BD08B52820FFF7D8FE0320FFF721FF0520FFF7D2FE0320FFF71BFF0F20FFF7CCFE0320FFF715FF0120FFF7C6FEFE
:400940000220FFF70FFF0520FFF7C0FE0620FFF7D5FF0E20FFF7D2FF2C20FFF7CFFF0820FFF7CCFF0120FFF7C9FF0C20FFF7C6FF0320FFF7C3FF0520FFF7A8FE08BD00BFB4
:4009800008B50C20FFF7BAFF0122014B1A7008BDA481FF1F08B5054B5B7823B9FFF7BAFF0122024B5A70FFF7EBFF08BDA481FF1F08B5032819D8DFE800F002070D1381F0E7
:4009C0008000FFF79BFF08BDA1F14000C0B2FFF795FF08BDA1F16C00C0B2FFF78FFF08BDA1F12C00C0B2FFF789FF08BD38B504460309054DE85CFFF77DFF04F00F04285D8C
:400A0000FFF778FF38BD00BF70180000064B1A7842F001021A701B7813F0010F01D1012070470020704700BF04A0004008B500F073FA154A137843F0010313701032137816
:400A400043F00103137000F06BFA41F201020F4B1A60FFF7DBFF4FF480320D4B1A600D4A136843F0010313604FF4107300E0013B23B1084A126812F0010FF8D00BB9012009
:400A800008BD002008BD00BFA643004000A0004000E100E010A0004010F4004F07D1064B18801B889BB2834203D001207047022070470020704700BF16A0004050B90D4BD9
:400AC0005A7802F0EF025A705B7813F0100F0CD001207047074B5A7842F010025A705B7813F0100F03D101207047002070470020704700BF14A0004030B4841EE4B20D2C45
:400B000028D88C1EE4B2052C02D92BBB012925D1032A25D8824225D88A4225D8164C657805F0F005284360706478E4B284421DD10BB9002000E002204B01DBB29200D2B250
:400B4000134303430C4A13701278D2B29A420FD001200EE002200CE002200AE0022008E0022006E0022004E0022002E0012000E0002030BC704700BF14A0004050B90D4B1A
:400B80001A7802F0EF021A701B7813F0100F0CD001207047074B1A7842F010021A701B7813F0100F03D101207047002070470020704700BF14A0004050B90D4B1A7802F074
:400BC000FE021A701B7813F0010F0CD001207047074B1A7842F001021A701B7813F0010F03D101207047002070470020704700BF14A00040044B18801B889BB2834201D04E
:400C0000012070470020704704A0004003785B01214A416841F08011995003785B0199189A5802F07F12436823F080139A4228D183680B610278184B03EB42131969826885
:400C4000914220D1C2685A610278134B03EB42135969C268914218D14FF0FF329A6102780D4B03EB42139A69B2F1FF3F0FD10022DA610278084B03EB4213DB694BB10120F6
:400C80007047012070470120704701207047012070470020704700BFA0A0004001780901114A436843F4000343F008038B5003781B0199189B580D4A1A40436823F400037A
:400CC00023F008039A420BD183684B600278064B03EB02135A6883689A4203D001207047012070470020704720A00040F7007F0038B5002409E004EB44039B000E481844E4
:400D0000FFF7CCFF28B90134E4B2072CF3D9002500E001254DB10DE0084800EB0410FFF775FF30B90134E4B200E000240F2CF3D900E00125284638BD80180000E0180000C0
:400D400008B500F0E9F8334A137843F0010313701032137843F00103137000F0E1F82E4A137803F0FE0313704FF4F05300E0013B23B1294A127812F0010FF8D1002B3ED0D2
:400D80004FF48032254B1A6010202549FFF7BEFC10200721FFF7CEFC0220FFF77DFE98B90120FFF78BFE88B90A20032100221346FFF7A2FE60B90120FFF7E0FE50B9FFF7BD
:400DC000FBFE48B1012308E0012306E0012304E0012302E0012300E0002393B9FFF788FF88B941F20100FFF705FF70B90A4B00221A701B7813F0010F09D0012008BD0120CE
:400E000008BD012008BD012008BD012008BD002008BD00BFA643004010A0004080E100E08D0E000008B5074B1B7813B9FFF788FF00E0002020B90122024B1A70FFF7F6FDFB
:400E400008BD00BFA681FF1F38B510220C4B5A700125002410E00B4B1B881D4208D06301094A9B5C13F0200F02D0204600F01AF86D00ADB20134E4B20F2CECD938BD00BF9A
:400E800000A0004008A00040A0A0004008B5044B5B7813F0100F01D0FFF7D6FF08BD00BF00A0004070B584B04501164C2E192B5D13F0010F23D0B37813F0100F03D0736818
:400EC000C3F3CF0301E073685B0DADF80430B07800F00F008DF80600002307E0F218117A04AA1A4402F8091C0133DBB28342F5D36846FFF7D7F92B5D43F001032B5504B03C
:400F000070BD00BFA0A000400230800803D000BF01380046FCD17047EFF3108072B6704780F31088704700BF014B1868704700BF8081FF1F0E4B70B51E460E4C0025E41A64
:400F4000A410A54204D056F8253098470135F8E700F062FD084B094C1E46E41AA4100025A54204D056F8253098470135F8E770BD241A0000241A0000241A00002C1A0000BA
:400F800010B5431E0A44914204D011F8014B03F8014FF8E710BD03460244934202D003F8011BFAE7704700000EB400B54FF402719CB0ADF814106FF00041049107914FF691
:400FC000FF711DABADF81610084953F8042B02900690086802A9019300F064F8029B00221A701CB05DF804EB03B070478081FF1F2DE9F0478E688246B3420C469046994617
:4010000040D38A8912F4906F3AD02568096902236F1A656905EB450595FBF3F57B1C4B449D4238BF1D4653050FD5294600F030FB064698B121693A46FFF7A2FFA38923F4B0
:40104000906343F08003A38113E02A4600F076FB064670B95046216900F0D6FA0C23CAF80030A3894FF0FF3043F04003A381BDE8F08726613E4426604E466561ED1BA56023
:40108000B14500D24E4632462068414600F0A0FAA36800209B1BA36023681E442660BDE8F08700002DE9F0439DB003938B8906461C060D4690460CD50B6953B9402100F0C7
:4010C000E7FA2860286110B90C233360CCE040236B610023099320238DF8293030238DF82A3043461C4613F8012B1AB9B4EB08090FD002E0252AF5D1F8E7304629464246BF
:401100004B46FFF775FF013000F0A980099B4B4409932378002B00F0A28000234FF0FF3204930793059206938DF853301A9304F101084446DFF8489121784846052200F0A4
:4011400039FA08F10108049B30B1C9EB00000122824013430493ECE7D80644BF20228DF85320190744BF2B228DF8532022782A2A02D0079923460EE0039A0134111D1268AD
:401180000391002ABBBF524243F0020307920792B8BF04930AE01C4622780133303A092A03D80A2000FB0121F5E7079123782E2B1AD163782A2B0AD1039B02341A1D1B6826
:4011C0000392002BB8BF4FF0FF3305930CE0611C00220C4623780131303B092B03D80A2000FB0232F5E70592DFF8988021784046032200F0DFF938B1049AC8EB0000402327
:40120000834013430493013421781A48062204F101088DF8281000F0CDF988B1164B33B9039B073323F007030833039313E003AB0093304604A92A46104BAFF3008007E0BE
:4012400003AB0093304604A92A460C4B00F092F8421C074603D0099B3B44099341E7AB895B0601D4099801E04FF0FF301DB0BDE8F08300BFEC19000000000000F10F000061
:40128000E2190000E81900002DE9F84391461F468A680B6906469342B8BF1346C9F8003091F843200C46DDF8208012B10133C9F800302368990642BFD9F800300233C9F8A0
:4012C0000030256815F006051CD094F843302268003318BF012392061FD5E118302081F843005A1C94F845102244023382F8431013E03046394604F119020123C0470130DA
:4013000007D00135E368D9F800209B1A9D42F0DBDBE74FF0FF30BDE8F8833046394604F14302C0470130F4D02268D9F80050E36802F00602042A08BF5D1B2269A3680CBFCC
:4013400025EAE57500259342C4BF9B1AED184FF00009A9450ADA3046394604F11A020123C0470130D5D009F10109F2E70020BDE8F88300002DE9FF410C461746227E98460C
:401380006E2A06460A9B01F1430100F0B08012D8632A23D00AD8002A00F0BD80582A40F0CC8084F84520DFF804E257E0642A1ED0692A1CD0C1E0732A00F0B18009D86F2A04
:4013C0002ED0702A40F0B980226842F0200222603FE0752A24D0782A3BD0AEE01A6804F14205111D1960136884F84230A9E020681A6810F0800F02D0101D186008E010F050
:40140000400F02F10400186002D0B2F9003000E01368002B3EDA2D225B4284F8432039E020681A6810F0800F02D0101D186007E010F0400F02F10400186001D0138800E0BE
:401440001368227EDFF864E16F2A0CBF08220A221CE07822DFF858E184F845202268186812F0800F00F104051D6003D1550601D5038800E00368D00744BF42F02002226057
:401480001BB9226822F0200222601022002084F8430002E0DFF814E10A226568002DA8BF2068A560A4BF20F00400206003B965B10D46B3FBF2F002FB10331EF8033005F80D
:4014C000013D03460028F4D100E00D46082A0BD12368DA0708D5236962689A42DEBF302305F8013C05F1FF35491B21612EE025681A6815F0800F606903D0151D1D6013680B
:4015000008E015F0400F02F104051D60136801D0188000E01860002323610D4616E01A68111D1960156800212846626800F042F808B1401B6060636804E004F1420584F866
:40154000422001232361002384F84330CDF800803046214603AA3B46FFF796FE013002D14FF0FF301FE0304639462A462369C0470130F5D023689B0705D4E068039B984250
:40158000B8BF18460FE00025E368039A9B1A9D42F3DA3046394604F119020123C0470130DED00135F0E704B0BDE8F081F3190000041A000010B5C9B202449042034605D073
:4015C0001C7801308C42F8D1184610BD002010BD814210B501EB020301D3421E0BE09842FBD28118D21AD34204D013F8014D01F8014DF8E710BD994204D011F8014B02F880
:40160000014FF8E710BD000030B500293CD051F8042C0B1F1D49002AB8BF9B180A680C4612B95A600B6030BD93420DD219685818904201BF5A5852181A60426823605A60E2
:4016400030BD994203D80A4651680029F9D1146815199D420AD11B682344D0188842136012D10868034413604B680CE002D90C23036030BD1C681819884201BF08684968F2
:40168000001918605960536030BD00BFAC81FF1F70B5CC1C24F0030408340C2C38BF0C24002C064603DA0C233360002070BD8C42F9D3204A136810461946A1B10A68121BEA
:4016C0000ED40B2A03D90A608B188C501FE08B420BBF5A684A6802605A6018BF0B4616E00B464968E9E7144D2B681BB9304600F04BF828603046214600F046F8421C03464D
:40170000D1D0C51C25F0030585420AD11C6003F10B001A1D20F00700821A0AD05142995070BD3046E91A00F02FF80130BBD02B46ECE770BDAC81FF1FA881FF1FF8B5074637
:4017400015460E4621B91146BDE8F840FFF7A0BF1AB9FFF759FF2846F8BD00F025F8A8420ED238462946FFF793FF044650B131462A46FFF705FC38463146FFF745FF01E08E
:401780003046F8BD2046F8BD38B5064C0023054608462360FEF718FE431C02D1236803B12B6038BDF081FF1F51F8040C0028BEBF091851F8043CC018043870470000000067
:4017C000253032582530325800000000253033642E25303164410000253033642E25303164560000466F726D756C6120526163696E6700004368617267696E6720436972E1
:401800006375697400000000563A203030302E305620453A3030303000000000433A203030302E304120543A20303043000000002530336400000000005100401000305155
:4018400000401000505100402000F0510040100000000140001000140140000800400140000A004C014000020050014020000000303132333435363738394142434445466B
:401880000000000008008800000000000100000008008800000000000200000008008800000000000300000008008800000000000400000008008800000000000500000049
:4018C000080088000000000006000000080088000000000007000000080088000000000000000000A8008000FFFFFFFF0000000001000000A8008000FFFFFFFF00000000E2
:4019000002000000A8008000FFFFFFFF0000000003000000A8008000FFFFFFFF0000000004000000A8008000FFFFFFFF0000000005000000A8008000FFFFFFFF0000000009
:4019400006000000A8008000FFFFFFFF0000000007000000A8008000FFFFFFFF0000000008000000A8008000FFFFFFFF0000000009000000A8008000FFFFFFFF00000000B9
:401980000A000000A8008000FFFFFFFF000000000B000000A8008000FFFFFFFF000000000C000000A8008000FFFFFFFF000000000D000000A8008000FFFFFFFF0000000069
:4019C0000E000000A8008000FFFFFFFF000000000F000000A8008000FFFFFFFF000000004300232D302B2000686C4C0065666745464700303132333435363738394142437D
:401A0000444546003031323334353637383961626364656600000000F8B500BFF8BC08BC9E4670474D00000045040000F8B500BFF8BC08BC9E46704729000000501A00004E
:401A40000881FF1F80000000700000000000000000000000F881FF1F0000E02EC05D00001800000000366E0100000000000000000000000000000000000000000000000050
:401A80000000000000000000E0190000000000000000000000000000000000000000000000000000000000000000000000000000000000000000000000000000000000002D
:401AC00000000000000000002081FF1F0000000000000000000000000000000000000000000000000000000000000000000000000000000000000000000000000000000027
:401B000000000000000000000000000000000000000000000000000000000000000000000000000000000000000000000000000000000000000000000000000000000000A5
:401B40000000000000000000000000000000000000000000000000000000000000000000000000000000000000000000000000000000000000000000000000000000000065
:401B80000000000000000000000000000000000000000000000000000000000000000000000000000000000000000000000000000000000000000000000000000000000025
:401BC00000000000000000000000000000000000000000000000000000000000000000000000000000000000000000000000000000000000000000000000000000000000E5
:020000040003F7
:0200000480007A
:4000000001520040010701400109014001150140011B014002400140014101400342014002430140034701400148014002490140014C0140074D01402001E810E810E2100C
:40004000E2105710D440A7100408A710C020A710B4049802B402E808A7108F10A7109802181078028C109802C608DE02E20800000800000000000000000B0B0000000000D5
:40008000007F7F000000000000010100010000000000000000000000000000000000000000000000000000000000000000000000000000000000000000000000000000003F
:4000C0000000000000000000000000000000000000000000000000000000000000000000000000000000000000000000000000000000000000000000000000000000000000
:4001000000000000000000000000000000000000000000000000000000000000000000000000000000000000000000000000000000000000000000000000000000000000BF
:40014000000000000000000000000000000000000000000000000000000000000000000000000000000000000000000000000000000000000000000000000000000000007F
:40018000000000000000000000000000000000000000000000000000000000000000000000000000000000000000000000000000000000000000000000000000000000003F
:0200000490006A
:0400000000004005B7
:0200000490105A
:04000000BC90ACAF55
:0200000490303A
:02000000DA74B0
:0200000490402A
:4000000000000000000000000000000000000000000000000000000000000000000000000000000000000000000000000000000000000000000000000000000000000000C0
:400040000000000000000000000000000000000000000000000000000000000000000000000000000000000000000000000000000000000000000000000000000000000080
:400080000000000000000000000000000000000000000000000000000000000000000000000000000000000000000000000000000000000000000000000000000000000040
:4000C0000000000000000000000000000000000000000000000000000000000000000000000000000000000000000000000000000000000000000000000000000000000000
:0200000490501A
:0C00000000012E12306900012E1C0ADDE8
:00000001FF